:0300000002000EED
:0C000E00787FE4F6D8FD75810B020055E8
:0801EE000208005A020A000099
:0A01B2008583088582097F027E0024
:1001BC00E4FDFCC3ED9FEC9E5015E4FBFA0BBB0079
:0F01CC00010AEB64704A70F50DBD00010C80E470
:0101DB002201
:1001DC00758901758AA3758CFFD2A9C28DD28CD278
:0201EC00AF2240
:10009A009000001201DC20B124C3E50994B4E508FC
:1000AA0094005011E4F583F5821201B2A3E582644B
:1000BA00B5458370F4E4F50AF50B30B1FD20B0D6EE
:1000CA00D3E5099400E508940040189000B41201A1
:1000DA00B2E582158270021583E582B4FFF0E583EA
:1000EA00B4FFEBD3E5099400E50894005005E4F564
:0D00FA0008F509E4F50AF50B20B09B80FB2A
:03000B00020107E8
:10010700C0E0C0F0C0D075D000C000C004C005C0BA
:1001170006C007758AA3758CFF050BE50B700205F2
:100127000A6414450A7004F50AF50BAE08AF097C9A
:10013700007D0612015DC3E50B9FE50A9E5004D2C0
:10014700908002C290D007D006D005D004D000D04E
:06015700D0D0F0D0E03230
:10001A0002009AE493A3F8E493A34003F68001F262
:10002A0008DFF48029E493A3F85407240CC8C333E7
:10003A00C4540F4420C8834004F456800146F6DFB6
:10004A00E4800B01020408102040809001EEE47E57
:10005A00019360BCA3FF543F30E509541FFEE493AB
:10006A00A360010ECF54C025E060A840B8E493A372
:10007A00FAE493A3F8E493A3C8C582C8CAC583CA9D
:10008A00F0A3C8C582C8CAC583CADFE9DEE780BE55
:0101F6000008
:10015D00BC000BBE0029EF8DF084FFADF022E4CC86
:10016D00F875F008EF2FFFEE33FEEC33FCEE9DEC4F
:10017D00984005FCEE9DFE0FD5F0E9E4CEFD22ED95
:10018D00F8F5F0EE8420D21CFEADF075F008EF2FDF
:10019D00FFED33FD4007985006D5F0F222C398FDD0
:0501AD000FD5F0EA226D
:00000001FF
