:0300000002000EED
:0C000E00787FE4F6D8FD75810B020055E8
:040003000208000FE0
:10012A00E4FDFCC3ED9FEC9E5015E4FBFA0BBB000B
:0F013A00010AEB64704A70F50DBD00010C80E402
:010149002293
:10014A00758901758AA3758CFFD2A9C28DD28CD20A
:02015A00AF22D2
:10009A00E4F50AF50B12014A20B4277F0A7E001202
:1000AA00012A20B41D0509E50970020508E4F50ACC
:1000BA00F50BE509641945087005F5087509193045
:1000CA00B4FD20B5D37F0A7E0012012A20B5C9E506
:1000DA0009150970021508E4F50AF50BE509640526
:0E00EA0045087005F50875090520B5AC80FBCA
:03000B000200F8F8
:1000F800C0E0C0D0758AA3758CFF050BE50B7002B4
:10010800050A6414450A7004F50AF50BC3E50B9556
:1001180009E50A95085004D2908002C290D0D0D048
:02012800E032C3
:10001A0002009AE493A3F8E493A34003F68001F262
:10002A0008DFF48029E493A3F85407240CC8C333E7
:10003A00C4540F4420C8834004F456800146F6DFB6
:10004A00E4800B0102040810204080900003E47E43
:10005A00019360BCA3FF543F30E509541FFEE493AB
:10006A00A360010ECF54C025E060A840B8E493A372
:10007A00FAE493A3F8E493A3C8C582C8CAC583CA9D
:10008A00F0A3C8C582C8CAC583CADFE9DEE780BE55
:0100070000F8
:00000001FF
