:03000000020026D5
:0C002600787FE4F6D8FD75812002006DA3
:10000E00C101C18002080000020A0000020E0000B9
:0A022300850E08850F097F027E009A
:10022D00E4FDFCC3ED9FEC9E5015E4FBFA0BBB0007
:0F023D00010AEB64704A70F50DBD00010C80E4FE
:01024C00228F
:10024D00438901758AA3758CFFD2A9C28DD28C7595
:10025D009850E4F587438920758BFD758DFDD28E01
:05026D00D2AFD2AC226B
:1000B20012024D20B22EC3E50994B4E50894005013
:1000C2001BE4F50EF50F120223050FE50F70020572
:1000D2000ED394B4E50E6480948040EAE4F50AF508
:1000E2000B30B2FD20B3CCD3E5099400E5089400AF
:1000F200401A750E00750FB4120223E50F150F702A
:1001020002150EC3E50E6480948050ECD3E5099489
:1001120000E50894005005E4F508F509E4F50AF550
:060122000B20B38F80FBEF
:03000B00020128C7
:10012800C0E0C0F0C0D075D000C000C004C005C099
:1001380006C007758AA3758CFF050BE50B700205D1
:100148000A6414450A7004F50AF50BAE08AF097C79
:10015800007D0612017EC3E50B9FE50A9E5004D27E
:10016800908002C290D007D006D005D004D000D02D
:06017800D0D0F0D0E0320F
:030023000201D304
:1001D300C0E0C0D075D000C007309837C2ACC29819
:1001E300D201AF99750C008F0DE50D6401450C60CC
:1001F30008E50D6431450C7006C2B2D2B38018E530
:100203000D450C6008E50D6430450C700AD2B2C28E
:10021300B38004C299D200D2ACD007D0D0D0E032A0
:100032000200B2E493A3F8E493A34003F68001F232
:1000420008DFF48029E493A3F85407240CC8C333CF
:10005200C4540F4420C8834004F456800146F6DF9E
:10006200E4800B010204081020408090000EE47E20
:10007200019360BCA3FF543F30E509541FFEE49393
:10008200A360010ECF54C025E060A840B8E493A35A
:10009200FAE493A3F8E493A3C8C582C8CAC583CA85
:1000A200F0A3C8C582C8CAC583CADFE9DEE780BE3D
:01001E0000E1
:10017E00BC000BBE0029EF8DF084FFADF022E4CC65
:10018E00F875F008EF2FFFEE33FEEC33FCEE9DEC2E
:10019E00984005FCEE9DFE0FD5F0E9E4CEFD22ED74
:1001AE00F8F5F0EE8420D21CFEADF075F008EF2FBE
:1001BE00FFED33FD4007985006D5F0F222C398FDAF
:0501CE000FD5F0EA224C
:00000001FF
